:020000040800F2
:10000000600A0020CD010008CD240008E521000889
:10001000C924000817030008A526000800000000F6
:10002000000000000000000000000000052500089E
:100030006108000800000000D92400080725000816
:10004000E7010008D1240008E7010008E7010008E3
:10005000E7010008E7010008E7010008E7010008E0
:10006000E7010008E7010008E7010008E7010008D0
:10007000E7010008E7010008BD050008E7010008E6
:10008000E7010008E7010008E7010008E7010008B0
:10009000E7010008E7010008E7010008E7010008A0
:1000A000E7010008E7010008E7010008E701000890
:1000B00079250008E7010008E7010008E7010008CA
:1000C000E7010008E7010008E7010008E701000870
:1000D000E701000885260008E7010008E70100089D
:1000E00065080008E7010008E7010008E7010008CB
:1000F000E7010008E7010008E7010008E701000840
:10010000E7010008E7010008E7010008E70100082F
:10011000E7010008E7010008E7010008E70100081F
:10012000E7010008E7010008E7010008E70100080F
:1001300000F002F800F03AF80AA090E8000C8244BF
:100140008344AAF10107DA4501D100F02FF8AFF29C
:10015000090EBAE80F0013F0010F18BFFB1A43F0A5
:10016000010318470C5100002C510000103A24BF25
:1001700078C878C1FAD8520724BF30C830C144BF0C
:1001800004680C607047000000230024002500264E
:10019000103A28BF78C1FBD8520728BF30C148BFEA
:1001A0000B6070471FB51FBD10B510BD00F07EF885
:1001B0001146FFF7F7FF03F047FC00F09CF803B48B
:1001C000FFF7F2FF03BC00F09FF8000009488047EA
:1001D00009480047FEE7FEE7FEE7FEE7FEE7FEE729
:1001E000FEE7FEE7FEE7FEE704480549054A064B41
:1001F00070470000752500083101000860040020E8
:10020000600A00206006002060060020B2F1200392
:100210000AD5C2F1200320FA02F001FA03F321FA11
:1002200002F140EA0300704721FA03F04FF00001A9
:1002300070474FF0000200B51346944696462039A9
:1002400022BFA0E80C50A0E80C50B1F12001BFF48F
:10025000F7AF090728BFA0E80C5048BF0CC05DF8F5
:1002600004EB890028BF40F8042B08BF704748BF43
:1002700020F8022B11F0804F18BF00F8012B7047B7
:1002800070477047704710B500F008F8006810BD5F
:1002900010B5044600F002F8046010BD0048704735
:1002A000FC03002000487047FC0300207546FFF760
:1002B000F9FFAE4605006946534620F00700854623
:1002C00018B020B5FFF790FFBDE820404FF00006C2
:1002D0004FF000074FF000084FF0000B21F007012E
:1002E000AC46ACE8C009ACE8C009ACE8C009ACE871
:1002F000C0098D46704710B50446AFF30080204614
:10030000BDE81040FFF75BBF01491820ABBEFEE718
:1003100026000200704700BFFEE7000070B50446EB
:100320000D461848C088A84201DA1648C588154904
:10033000C88800EBD0714910124A128905FB0211DE
:10034000104AD288B1FBF2F6B3B2002221460E4821
:1003500000F0CEFB54B90D48007888B900210A4856
:1003600000F0DFFB01200949087009E00848007827
:1003700030B91021044800F0D4FB01200449087072
:1003800070BD0000B6510008580000203C0000205D
:100390003D00002070B5002461E03248005D00B9E6
:1003A0005BE00CB9002000E0102006462E48005DFE
:1003B00070B12E48005D401C2C4908550846005D70
:1003C000032800DA49E0002028490855012500E00B
:1003D0000525274830F81400264931F814108842C2
:1003E0001ADA234830F814002844214921F814006F
:1003F000084630F814001F4931F81410884225DBF4
:100400001C4830F814001A4921F81400002015493E
:1004100008551549085519E0154830F81400401BD7
:10042000134921F81400084630F81400114931F836
:10043000141088420ADC0F4830F814000C4921F8E7
:10044000140000200749085507490855084830F8A6
:1004500014103046FFF762FF00BF601CC4B2022CCC
:100460009BDB70BD3E000020480000204A000020B9
:1004700040000020440000202DE9F0410446012CFA
:1004800001DDBDE8F0810CB9002000E01020074636
:10049000264890F82A00012814D103F075FB06467F
:1004A00031463846FFF73AFF214820F814602148CA
:1004B00020F814600020204908552049085520499B
:1004C0000855DEE719480078B0B903F05DFB064631
:1004D000184820F8146001201849085500201849D0
:1004E0000855134830F81400B04201D0012000E054
:1004F000002011490855C4E700201049085510494B
:1005000008550A49491C085D02F0F4F905460948F6
:1005100020F81450064830F81400A84201D00120F9
:1005200000E000200449085500BFAAE7B4030020FA
:1005300040000020440000203E0000204800002031
:100540004A00002070B50446012C00DD70BD0CB9D6
:10055000002000E010200646124890F82A000128EA
:1005600002D01048007818B903F00EFB054605E0EC
:100570000C49491C085D02F0BDF905462946304684
:10058000FFF7CCFE084820F81450084820F8145013
:10059000002007490855074908550749085500BF75
:1005A000D4E70000B40300204000002044000020F5
:1005B0003E000020480000204A00002010B50248FC
:1005C00000F0EEFA10BD0000080100202DE9F84F00
:1005D00000F08EF812202349087000BF21480078EF
:1005E000401EC0B21F4908700028F7D1CC2000F08F
:1005F000DFF8BE2000F0DCF800F038F8834600F0A9
:1006000035F80446072C08DDE043C4B26FEA0B005E
:1006100000F0FF0B4FF0000A01E04FF0010AA14685
:100620004FEA09200FFA80F909EB0B000FFA80F965
:10063000484604F0CFFB009004F05CFA0746002225
:10064000094B04F02DF8054603F066FF0FFA80F918
:10065000BAF1000F02D04846BDE8F88FC9F100009A
:1006600000B2F9E74C0000200000E43F0020082120
:1006700036E0401002221C4B1A6036221B4B1A70C7
:1006800000BF1A4A1278521ED2B2184B1A70002AB2
:10069000F7D10222144B1B1F1A602422134B1A702D
:1006A00000BF124A1278521ED2B2104B1A70002AA2
:1006B000F7D10D4A0C3A126802F0020212B100BFE3
:1006C00040F080001C22094B1A7000BF074A1278C4
:1006D000521ED2B2054B1A70002AF7D14A1ED1B26F
:1006E0000029C6DC70470000140C01404C000020BB
:1006F000002102202C4A1060121D1060E0202B4ABD
:10070000107000BF29480078401EC0B2274A107000
:100710000028F7D10220244A10608720234A107055
:1007200000BF22480078401EC0B2204A1070002846
:10073000F7D10DE0481CC1B209201C4A107000BF5F
:100740001A480078401EC0B2184A10700028F7D12D
:1007500015480838006800F0020010B100BFC82931
:10076000E8DBC82901DB0120704700210DE0481CAF
:10077000C1B209200D4A107000BF0C480078401E1D
:10078000C0B20A4A10700028F7D10748083800683C
:1007900000F0020008B9F029E9DBF02901DB0120B3
:1007A000E2E70020E0E70000100C01404C000020D0
:1007B00010B5082235E000F0010102231A4C236035
:1007C00012231A4C237000BF184B1B785B1EDBB240
:1007D000164C2370002BF7D1012903D10223124CB0
:1007E000241F23601C23114C237000BF0F4B1B7868
:1007F0005B1EDBB20D4C2370002BF7D102230A4C99
:10080000241F23601223094C237000BF074B1B7861
:100810005B1EDBB2054C2370002BF7D14010531E3A
:10082000DAB2002AC7DC10BD140C01404C000020D5
:1008300000B5FFF75DFF12200849087000BF0748A8
:100840000078401EC0B2054908700028F7D1CC20BE
:10085000FFF7AEFF4420FFF7ABFF00BD4C000020C8
:10086000704700000348006800F4805001490860A8
:10087000704700001404014072B601E002F0F4FE7B
:10088000FCE700000021074AD1610749096941F0EE
:100890000401054A11611146096941F040011161E5
:1008A0007047000050020020002002400021074A4B
:1008B000D1610749096941F00201054A11611146F8
:1008C0004861096941F04001116170475002002000
:1008D000002002400022054BDA61054A126942F00D
:1008E0000102034B1A610180704700005002002092
:1008F0000020024000201E49C96801F0100139B1F2
:100900001C49C96941F002011A4AD16140F0100046
:100910001749C96801F0040139B11649C96941F0A4
:100920000101144AD16140F004001149C96901F084
:10093000010169B10F49C96941F004010D4AD16152
:1009400000BF0B49C96921F00101094AD16100BF0B
:1009500000BF40F20111884206D10549C96921F062
:100960000101034AD16101E00149C86000BF70473D
:10097000002002405002002070B5044600F0AEFD99
:10098000054609E0601C38B124B100F0A7FD401B0A
:10099000A04201D9032070BD1248C06800F00100D8
:1009A0000028EFD10F48C06800F0200020B100BF40
:1009B00020200C49C86000BF0A48C06800F0100041
:1009C00048B90848C06900F0010020B90548C0686E
:1009D00000F0040018B1FFF78DFF0120DBE70020D5
:1009E000D9E7000000200240F0B50346002603B11D
:1009F00009B90120F0BD00BF5879012801D10220BA
:100A0000F8E70120587100BF0220187118680468C7
:100A100002F0100740F6FE70B8408443D1E90007A9
:100A200040EA070502F0100005FA00F004431868D8
:100A300004601868006802F0100CC02707FA0CF771
:100A4000B8431F6838600120187100BF002058713A
:100A500000BF3046CEE710B504460CB9012010BDEA
:100A6000207920B900206071204600F009F80220AA
:100A7000207100202061012020710020EFE700009C
:100A800010B586B0044600200290039004900590B3
:100A900014492068884222D100BF1348C06940F041
:100AA00000501149C8610846C06900F0005001902B
:100AB00000BF00BF00BF0846806940F004008861A5
:100AC0000846806900F00400019000BF00BF30209C
:100AD00002900320039002A9044800F059FB06B0DD
:100AE00010BD0000007400400010024000080140EA
:100AF00038B50446002000900CB9012038BD2068AC
:100B0000009029B902F10800009D2844009004E0FB
:100B100002F11400009D284400900098036000201A
:100B2000ECE710B502460AB9012010BD00BF5079AC
:100B3000012801D10220F8E70120507100BF0220F6
:100B400010711068006801F010040123A3401843DD
:100B50001368186061B91068006800F03C003C2818
:100B600016D11068406840F00100136858600FE02B
:100B70001068006800F4701301F010043C20A040DD
:100B8000834205D11068406840F002001368586045
:100B90000120107100BF0020507100BF00BFC4E7EA
:100BA00070B50446E06B05682068066894F840104C
:100BB000042088402840002875D006F00400002852
:100BC000FAD02068006800F0200028B9206800688A
:100BD00020F0040021680860D5492068884254D973
:100BE000D34978392068884201D1042049E0D049AE
:100BF00064392068884201D1402042E0CC49503914
:100C00002068884201D100153BE0C9493C39206881
:100C1000884202D14FF4804033E0C549283920682A
:100C2000884202D14FF480202BE0C149143920685A
:100C3000884202D14FF4800023E0BD4920688842F9
:100C400001D1C0041DE0BB492068884201D10420C5
:100C500017E0B84914312068884201D1402010E0E3
:100C6000B44928312068884201D1001509E0B14912
:100C70003C312068884202D14FF4804001E04FF4BB
:100C80008020AC49091F086054E0A94978392068E0
:100C9000884201D104204AE0A5496439206888428D
:100CA00002D1402043E04CE0A149503920688842FD
:100CB00001D100153BE09E493C392068884202D1B1
:100CC0004FF4804033E09A4928392068884202D1A5
:100CD0004FF480202BE0964914392068884202D1D5
:100CE0004FF4800023E092492068884201D1C0047B
:100CF0001DE090492068884201D1042017E08D4909
:100D000014312068884201D1402010E089492831FF
:100D10002068884201D1001509E086493C312068ED
:100D2000884202D14FF4804001E04FF48020804996
:100D300080394860E06A002802D02046E16A88478E
:100D4000F4E094F84010022088402840002871D038
:100D500006F002000028FAD02068006800F02000A9
:100D600040B92068006820F00A002168086001206E
:100D700084F821006E492068884254D96C4978393A
:100D80002068884201D1022049E06949643920681D
:100D9000884201D1202042E06549503920688842CC
:100DA00001D140153BE062493C392068884202D1BC
:100DB0004FF4005033E05E4928392068884202D160
:100DC0004FF400302BE05A4914392068884202D190
:100DD0004FF4001023E056492068884201D1800476
:100DE0001DE054492068884201D1022017E0514992
:100DF00014312068884201D1202010E04D4928316B
:100E00002068884201D1401509E04A493C312068F8
:100E1000884202D14FF4005001E04FF400304549C0
:100E2000091F086054E0424978392068884202D19D
:100E300002204AE057E03E4964392068884201D1E7
:100E4000202042E03A4950392068884201D14015BB
:100E50003BE037493C392068884202D14FF40050CA
:100E600033E0334928392068884202D14FF40030FA
:100E70002BE02F4914392068884202D14FF400102A
:100E800023E02B492068884201D180041DE02949D4
:100E90002068884201D1022017E0264914312068D9
:100EA000884201D1202010E0224928312068884260
:100EB00001D1401509E01F493C312068884202D128
:100EC0004FF4005001E04FF4003019498039486078
:100ED00000BF002084F8200000BFA06A30B3204685
:100EE000A16A884722E094F84010082088402840F2
:100EF000E0B106F00800C8B12068006820F00E00DC
:100F00002168086094F8401001208840E16B486037
:100F10000120A06384F8210000BF002084F8200095
:100F200000BF206B10B12046216B884770BD0000C8
:100F300080000240080402400146002209B9012055
:100F400070471E4B086898420BD21D4B0868C01AA8
:100F50001423B0FBF3F08000086419480838C86314
:100F60000AE0164B0868C01A1423B0FBF3F08000A7
:100F7000086412480838C863022081F82100086814
:100F8000026843F6F0708243D1E901031843CB684D
:100F900018430B6918434B6918438B691843CB6995
:100FA000184302430868026000208863012081F82A
:100FB0002100002081F8200000BFC1E708040240A2
:100FC0000800024070B5044600F088FA064625463F
:100FD000681C10B104480078054400BF00F07EFA98
:100FE000801BA842FAD370BD180000202DE9F04103
:100FF00004460E460127002500BF2648007E012832
:1010000002D10220BDE8F08101202249087600BF0C
:101010002068022813D14CF25030FFF7ADFC90BB92
:101020000120FFF72FFC4CF25030FFF7A5FC0746DC
:101030001948006920F004001749086123E04CF2C8
:101040005030FFF799FCF0B94FF0FF303060A568E1
:1010500012E02846FFF72AFC4CF25030FFF78CFCD8
:1010600007460D48006920F002000B4908610FB1E6
:10107000356007E005F50065D4E9021001EBC020FA
:10108000A842E6D800BF00BF00200249087600BF92
:101090003846B7E7500200200020024003480069AC
:1010A00040F08000014908610020704700200240A4
:1010B0002DE9FE4F05468B4617469846012600242B
:1010C0000020029000BF2448007E012802D10220A7
:1010D000BDE8FE8F01202049087600BF4CF2503059
:1010E000FFF74AFC064686BB012D02D10120029083
:1010F00006E0022D02D10220029001E004200290BD
:1011000000241EE02201B946C24648465146FFF778
:101110007DF880B20190022000FB04B0009001999C
:10112000FFF7D8FB4CF25030FFF726FC06460B4881
:10113000006920F001000949086106B104E0601C63
:10114000C4B202988442DDDB00BF00BF0020024928
:10115000087600BF3046BBE7500200200020024066
:1011600000200849096901F0800151B10649054A8A
:101170005160064951601146096901F0800101B1D1
:10118000012070470020024023016745AB89EFCD65
:101190002DE9F847024600239C467BE14FF0010809
:1011A00008FA03F4D1F8008008EA0400A0427DD1D7
:1011B000DFF8F4A2D1F80480A8EB0A09D0453AD0B0
:1011C00014DCB8F1030F50D009DCB8F1000F31D0B6
:1011D000B8F1010F1CD0B8F1020F49D120E0B8F1ED
:1011E000110F18D0B8F1120F42D11EE0B9F5881FC7
:1011F00025D006DCB9F5803F20D0B9F5801F37D166
:101200001AE0B9F5001F18D0B9F5041F30D117E066
:10121000D1F80CC02DE0D1F80C8008F1040C28E0C6
:10122000D1F80C8008F1080C23E0D1F80C8008F10B
:101230000C0C1EE000BF00BF00BF00BF00BF00BF1E
:10124000D1F80880B8F1000F02D14FF0040C0BE088
:10125000D1F80880B8F1010F03D14FF0080C1461E8
:1012600002E04FF0080C546103E04FF0000C00E086
:1012700000BF00BFFF2801D8904601E002F104083A
:101280004646FF2802D84FEA830803E0A3F1080886
:101290004FEA88084746D6F800804FF00F0909FA50
:1012A00007F928EA09080CFA07F900E07AE048EAA9
:1012B0000908C6F80080D1F8048008F08058B8F119
:1012C000805F6FD100BFDFF8E481D8F8188048F064
:1012D0000108DFF8D891C9F81880C846D8F81880F6
:1012E00008F00108CDF8008000BF00BF4FEAB93810
:1012F0004FEA930958F829504FEA83784FEA187952
:101300004FF00F0808FA09F825EA0805DFF8A08170
:10131000424502D14FF0000824E0DFF898814245B1
:1013200002D14FF001081DE0DFF88C81424502D167
:101330004FF0020816E0DFF88481424502D14FF0F9
:1013400003080FE0DFF87881424502D14FF004082E
:1013500008E0DFF87081424502D14FF0050801E056
:101360004FF006084FEA83794FEA197908FA09F82D
:1013700048EA0505DFF850814FEA930948F82950FB
:10138000D1F8048008F48018B8F5801F0BD1DFF87D
:101390003C81D8F8008048EA0008DFF83091C9F8AD
:1013A00000800AE075E0DFF82481D8F8008028EAA0
:1013B0000008DFF81891C9F80080D1F8048008F41B
:1013C0000018B8F5001F0ED1DFF8008108F10408FD
:1013D000D8F8008048EA0008DFF8F09009F1040925
:1013E000C9F800800DE0DFF8E48008F10408D8F8BF
:1013F000008028EA0008DFF8D49009F10409C9F850
:101400000080D1F8048008F40038B8F5003F0ED110
:10141000DFF8B880A8F10408D8F8008048EA00088E
:10142000DFF8A890A9F10409C9F800800DE0DFF801
:101430009C80A8F10408D8F8008028EA0008DFF8AA
:101440008C90A9F10409C9F80080D1F8048008F44F
:101450008038B8F5803F0ED1DFF87080A8F1080819
:10146000D8F8008048EA0008DFF86090A9F1080980
:10147000C9F800800DE0DFF85480A8F10808D8F81A
:10148000008028EA0008DFF84490A9F10809C9F8AB
:1014900000805B1CD1F8008028FA03F8B8F1000F37
:1014A0007FF47CAEBDE8F887000011100010024008
:1014B00000080140000C01400010014000140140F0
:1014C00000180140001C01400800014008040140D0
:1014D0000AB1016101E00B04036170470148006833
:1014E000704700001000002070B504460CB90120C0
:1014F00070BD4CF6CC402168086045F2555021681B
:101500000860D4E9001048602168A0688860FFF78F
:10151000E5FF05460BE0FFF7E1FF401B272806D952
:101520002068C06800F0030008B10320E0E72068ED
:10153000C06800F003000028EDD14AF6AA20216817
:1015400008600020D4E700000348006803490978D8
:10155000084401490860704710000020180000206E
:1015600010B50848006840F01000064908600320E4
:1015700000F0A8F80F2000F007F800F02BF800208A
:1015800010BD00000020024070B504460E480078EF
:101590004FF47A71B1FBF0F00C490968B1FBF0F53A
:1015A000284600F07DFC08B1012070BD102C07D248
:1015B00000222146501E00F047F80548046001E073
:1015C0000120F2E70020F0E7180000201C000020B6
:1015D0001400002008B500BF1148806940F00100E8
:1015E0000F4988610846806900F00100009000BF43
:1015F00000BF00BF0846C06940F08050C86108467F
:10160000C06900F08050009000BF00BF00BF0549D6
:10161000486820F0E06040F00070486000BF08BDFE
:10162000001002400000014001460846002809DB86
:1016300000F01F0301229A4043099B0003F1E023BD
:10164000C3F8002100BF70472DE9F05F80460D46CA
:101650001646002701F03CF8074639462A4633462D
:1016600001F00700C0F1070ABAF1040F02D94FF0E8
:10167000040A01E0C0F1070AD14600F1040ABAF1F8
:10168000070F02D24FF0000A01E0A0F1030AD4468E
:101690004FF0010A0AFA09FAAAF1010A0AEA020A53
:1016A0000AFA0CFA4FF0010B0BFA0CFBABF1010B31
:1016B0000BEA030B4AEA0B042146404601F010F8FE
:1016C000BDE8F09F00BF00F00702064B19684FF617
:1016D000FF031940044B0B4343EA0221014B1960FD
:1016E00000BF70470CED00E00000FA052A490968C8
:1016F00021F0E00102681143274A11602749096877
:1017000021F48031254A1160111F096821F48031CC
:10171000121F116021490831096821F480311F4AE4
:1017200008321160111F096821F48031121F116005
:10173000416801F48031B1F5803F07D11749091F95
:10174000096841F48031154A121F1160416801F4A3
:101750000031B1F5003F05D11049096841F48031ED
:101760000E4A1160017901F0010139B10B49091DDF
:10177000096841F48031094A121D1160017901F0B4
:101780000201022907D105490831096841F4803175
:10179000024A0832116070470070004004040140A2
:1017A000012001490861704700000E4210B5084849
:1017B000406800F00400042802D101F057FE05E063
:1017C0000348006840F010000149086010BD0000A7
:1017D0000070004010B50648006800F4803028B161
:1017E000FFF7E4FF4FF480300149086010BD0000AE
:1017F0001404014070B504460D460CB9012070BDBB
:101800005A48006800F00700A8420ED25748006806
:1018100020F007002843554908600846006800F09A
:101820000700A84201D00120E9E7207800F002007B
:1018300002281DD1207800F00400042805D14C486E
:10184000406840F4E0604A494860207800F00800B1
:10185000082805D14648406840F460504449486033
:101860004348406820F0F000A168084340494860C0
:10187000207800F0010078B36068012806D13C4868
:10188000006800F4003090B90120B8E760680228D1
:1018900006D13748006800F0007040B90120AEE77B
:1018A0003348006800F0020008B90120A7E730487B
:1018B000406820F00300616808432D494860FFF745
:1018C0000DFE064609E0FFF709FE801B41F2883154
:1018D000884202D9032092E707E02548406800F0DB
:1018E0000C006168B0EB810FEDD12048006800F07A
:1018F0000700A8420ED91D48006820F007002843C1
:101900001A4908600846006800F00700A84201D0A4
:10191000012074E7207800F00400042807D114485F
:10192000406820F4E060E16808431149486020788D
:1019300000F00800082808D10D48406820F46050E5
:10194000216940EAC1000A49486000F03FF80849AF
:101950004968C1F30311074A515CC8400649086051
:1019600006480068FFF710FE002048E7002002400C
:1019700000100240885100081C00002014000020C4
:1019800001480068704700001C00002000B5FFF708
:10199000F7FF04494968C1F30221034A515CC8407A
:1019A00000BD0000001002409851000800B5FFF78C
:1019B000E7FF04494968C1F3C221034A515CC840AA
:1019C00000BD0000001002409851000870B50021D1
:1019D0000022002400230020134D696801F00C054B
:1019E000F5B1042D02D0082D19D101E00F4819E0FE
:1019F0000F4DC1F38346AB5D01F4803555B10A4DFF
:101A00006D68C5F340450B4E725D084D5D43B5FBF7
:101A1000F2F402E0084D03FB05F4204602E000BFAB
:101A2000024800BF00BF70BD0010024000127A00E3
:101A3000765100088651000800093D00F8B50446BB
:101A40000CB90120F8BD207800F00100002878D002
:101A5000F848406800F00C0004280CD0F5484068B5
:101A600000F00C00082811D1F248406800F48030E2
:101A7000B0F5803F0AD1EF48006800F4003000283C
:101A80005FD0606800285CD10120DBE700BF6068A0
:101A9000B0F5803F06D1E748006840F48030E54962
:101AA000086028E0606858B9E248006820F4803097
:101AB000E04908600846006820F4802008601AE0C9
:101AC0006068B0F5A02F0BD1DA48006840F48020A0
:101AD000D84908600846006840F4803008600AE091
:101AE000D448006820F48030D24908600846006875
:101AF00020F48020086000BF606888B1FFF7EEFC2A
:101B0000054606E0FFF7EAFC401B642801D90320E4
:101B100098E7C848006800F400300028F2D010E0D0
:101B2000FFF7DCFC054606E0FFF7D8FC401B642805
:101B300001D9032086E7BF48006800F40030002880
:101B4000F2D1207800F00200022857D1B94840684D
:101B500000F00C0050B1B748406800F00C000828B5
:101B600018D1B448406800F4803098B9B148006892
:101B700000F0020020B12069012801D0012061E7B6
:101B8000AC48006820F0F800616940EAC100A9494A
:101B9000086033E02069E8B10120A7490860FFF739
:101BA0009DFC054606E0FFF799FC401B022801D981
:101BB000032047E79F48006800F002000028F2D0A9
:101BC0009C48006820F0F800616940EAC10099492A
:101BD000086013E0002098490860FFF77FFC054685
:101BE00006E0FFF77BFC401B022801D9032029E710
:101BF0009048006800F002000028F2D1207800F040
:101C0000080008282DD1A069B8B101208B490860CF
:101C1000FFF764FC054606E0FFF760FC401B022866
:101C200001D903200EE78348406A00F00200002833
:101C3000F2D0012000F052FC13E000207F49086040
:101C4000FFF74CFC054606E0FFF748FC401B022866
:101C500001D90320F6E67748406A00F00200002828
:101C6000F2D1207800F00400042873D100277148D5
:101C7000C06900F0805070B900BF6E48C06940F084
:101C800080506C49C8610846C06900F080500090DF
:101C900000BF00BF01276A48006800F48070B0B937
:101CA0006748006840F4807065490860FFF716FCDB
:101CB000054606E0FFF712FC401B642801D903200B
:101CC000C0E65F48006800F480700028F2D000BFD2
:101CD000E068012806D15748006A40F001005549E4
:101CE000086227E0E06858B95248006A20F0010015
:101CF000504908620846006A20F00400086219E0B2
:101D0000E06805280BD14B48006A40F004004949BF
:101D100008620846006A40F0010008620AE045488F
:101D2000006A20F00100434908620846006A20F07A
:101D30000400086200BFE068A0B1FFF7CFFB0546D2
:101D400009E0FFF7CBFB401B41F28831884202D902
:101D5000032077E622E03748006A00F002000028FE
:101D6000EFD012E0FFF7BAFB054608E0FFF7B6FB3D
:101D7000401B41F28831884201D9032062E62D4898
:101D8000006A00F002000028F0D1012F05D1294897
:101D9000C06920F080502749C86100BFE069C8B31E
:101DA0002448406800F00C00082860D0E069022850
:101DB00048D1002020490866FFF790FB054606E061
:101DC000FFF78CFB401B022801D903203AE6194893
:101DD000006800F000700028F2D1206AB0F5803F62
:101DE00007D11448406820F40030A1680843114925
:101DF0004860D4E9080108430E49496821F4741188
:101E000008430C49486001200B490866FFF766FB50
:101E1000054607E03DE0FFF761FB401B022801D9C2
:101E200003200FE60348006800F000700028F2D09D
:101E30002FE00000001002400000424280044242B5
:101E400000700040002014490866FFF747FB054674
:101E500006E0FFF743FB401B022801D90320F1E510
:101E60000E48006800F000700028F2D111E0E0692F
:101E7000012800D1E6E50948466806F48031206A69
:101E8000814204D106F47011606A814201D00120C0
:101E9000D8E50020D6E500000000424200100240D4
:101EA00070B504462546681EB0F1807F01D301203D
:101EB0000FE0681E4FF0E02148610F214FF0FF3026
:101EC00000F00EFC00204FF0E0218861072008613F
:101ED000002070BD70477047704710B504462068F9
:101EE0000069C0F34000D8B12068C068C0F340006A
:101EF000B0B16FF0020021680861012020772068EE
:101F0000806900F0030018B12046FFF7E5FF05E007
:101F1000204600F0ADF8204600F0ABF80020207716
:101F200020680069C0F38000D8B12068C068C0F3A1
:101F30008000B0B16FF004002168086102202077B2
:101F40002068806900F4407018B12046FFF7C4FF94
:101F500005E0204600F08CF8204600F08AF80020CA
:101F6000207720680069C0F3C000D8B12068C0683D
:101F7000C0F3C000B0B16FF0080021680861042010
:101F800020772068C06900F0030018B12046FFF7F1
:101F9000A3FF05E0204600F06BF8204600F069F84A
:101FA0000020207720680069C0F30010D8B12068B5
:101FB000C068C0F30010B0B16FF010002168086174
:101FC000082020772068C06900F4407018B12046CE
:101FD000FFF782FF05E0204600F04AF8204600F0B7
:101FE00048F8002020772068006900F0010058B10F
:101FF0002068C06800F0010030B16FF00100216876
:102000000861204600F036F820680069C0F3C0106F
:1020100058B12068C068C0F3C01030B16FF08000C4
:10202000216808612046FFF755FF20680069C0F36A
:10203000801058B12068C068C0F3801030B16FF0D4
:10204000400021680861204600F026F820680069F9
:10205000C0F3401058B12068C068C0F3401030B1E0
:102060006FF02000216808612046FFF734FF10BDA3
:10207000704770470168B1F1804F0AD1054909786E
:10208000491C044A1170114609783C2901DB0021E2
:10209000117070470C000020704710B504460CB951
:1020A000012010BDA06900B100E000BF94F841001C
:1020B00028B9002084F84000204600F029F82420A8
:1020C00084F841002068C06820F400502168C8608E
:1020D000204600F059FA2068006920F490402168F9
:1020E00008612068406920F02A0021684861206862
:1020F000C06840F400502168C8600020606420205F
:1021000084F8410084F842000020606300BFC8E703
:1021100010B586B00446002002900390049005900C
:102120002B492068884251D100BF2A48806940F479
:102130008040284988610846806900F48040019009
:1021400000BF00BF00BF0846806940F004008861FE
:102150000846806900F00400019000BF00BF4815E8
:102160000290022003900320059002A91A48FFF76D
:102170000FF84FF48060029000200390049002A9B1
:102180001548FFF705F81548154908601020486004
:102190000021134881608021C160002101614161FB
:1021A00081614FF40051C161FEF7C6FE08B1FEF730
:1021B00063FB00BF0A48A063446200BF0022012104
:1021C0002520FFF741FA2520FFF72EFA06B010BDB3
:1021D0000038014000100240000801404400024065
:1021E0000801002000BFFEE71CB500200090019010
:1021F0000E480F4908600846FEF72DFC08B1FEF7AF
:102200003BFB002000900190002269460848FEF741
:10221000EBFB08B1FEF730FB102269460448FEF7DD
:10222000E3FB08B1FEF728FB1CBD00000074004072
:102230005800002008B500BF0A48406940F001007E
:10224000084948610846406900F00100009000BF5D
:1022500000BF002201210E20FFF7F6F90E20FFF744
:10226000E3F908BD0010024000B585B000200190E0
:1022700002900390049000BF7148806940F02000F4
:102280006F4988610846806900F02000009000BF17
:1022900000BF00BF0846806940F010008861084612
:1022A000806900F01000009000BF00BF00BF08462A
:1022B000806940F0040088610846806900F00400ED
:1022C000009000BF00BF00BF0846806940F00800D2
:1022D00088610846806900F00800009000BF00BFD8
:1022E000012288215748FFF7F3F8012248F2C40180
:1022F0005548FFF7EDF8002230215248FFF7E8F883
:10230000002241215148FFF7E3F801224CF29A01E3
:102310004E48FFF7DDF88820019001200290002050
:1023200003900120049001A94648FEF731FF48F2CE
:1023300004000190112002900020039003200490DB
:1023400001A94148FEF724FF40200190012002909E
:10235000002003900320049001A93B48FEF718FFDA
:10236000802001901120029001200390032004900E
:1023700001A93548FEF70CFF3020019001200290A2
:10238000002003900220049001A92E48FEF700FFD0
:10239000012001900290002003900220049001A9E6
:1023A0002A48FEF7F5FE02200190012002900390DA
:1023B0000320049001A92548FEF7EAFE4FF440509F
:1023C0000190002002900120039001A91F48FEF710
:1023D000DFFE4FF440400190112002900020039056
:1023E0000320049001A91948FEF7D2FE4020019075
:1023F000002002900120039001A91248FEF7C8FEB8
:102400004FF480500190124802900120039001A9DE
:102410000C48FEF7BDFE0420019000200290012030
:10242000039001A90B48FEF7B3FE002201212820EA
:10243000FFF70AF92820FFF7F7F805B000BD000004
:10244000001002400010014000080140000C014053
:10245000000021100014014010B50748074908602A
:102460000320486040F2E24104488160FFF73CF8F5
:1024700008B1FEF701FA10BD003000406C000020EA
:1024800010B50F480F4908604FF4E1304860002153
:102490000C488160C16001610C21416100218161B2
:1024A000C161FFF7FAFD08B1FEF7E6F905480068DB
:1024B000C06840F0200003490968C86010BD0000F2
:1024C00000380140C000002000BFFEE700BFFEE76B
:1024D00010B5FFF77FF910BD7047000008B5084937
:1024E0000968C9084FF47A72B1FBF2F141430091D7
:1024F00000BF00BF00994A1E00920029F9D108BD13
:102500001C000020704710B5FFF71EF810BD00B585
:102510008FB0282105A8FDF78CFE14216846FDF731
:1025200088FE0120059000040690002007900120FD
:10253000099002200C90C1030D914FF4E0110E910F
:1025400005A8FFF77BFA08B1FEF796F90F20009077
:1025500002200190002002904FF480600390002040
:10256000049002216846FFF745F908B1FEF784F9A7
:102570000FB000BD7047000010B50248FFF7ADFC7A
:1025800010BD00007800002070B50446216809697C
:1025900021F44051E2681143226811612269A16867
:1025A0001143626941EA02052168C96841F20C627F
:1025B000914329432268D1602168496921F440711F
:1025C000A2691143226851612D4A2168914202D1CA
:1025D000FFF7ECF901E0FFF7D9F900EBC00101EBDF
:1025E000001162689200B1FBF2F100EBC00202EB55
:1025F000001263689B00B2FBF3F26423B2FBF3F2B8
:1026000002EBC20303EB0212A1EB8201322202EBC6
:1026100001116422B1FBF2F101F0F00100EBC00204
:1026200002EB001263689B00B2FBF3F26423B2FB7F
:10263000F3F201EB021200EBC00101EB0011636841
:102640009B00B1FBF3F100EBC00303EB00136668E2
:10265000B600B3FBF6F36426B3FBF6F303EBC30655
:1026600006EB0313A1EB8301322303EB0111642377
:10267000B1FBF3F101F00F0111442268916070BDCC
:102680000038014010B50648006800F0200028B16D
:102690000349091D0968C8B200F06EF910BD0000B9
:1026A0000038014000BFFEE7490050EAC12018BFD2
:1026B00004204A0D18BF40F0010040F2FF72B2EB57
:1026C000515F08BF40F00200012808BF0520704795
:1026D00002480068C0F30220704700000CED00E0E3
:1026E00010B5002804DB0A07130E054A135406E050
:1026F0000A07140E034A00F00F031B1FD45410BD29
:1027000000E400E018ED00E02DE9F0414F1E00EB81
:10271000C7010446D1E9000115461E4637F00602FE
:102720000DD02A46334601F0BBFF7F1E04EBC703E2
:10273000D3E9002301F0A0FC37F00602F1D1022F0B
:1027400025D0042F13D0062F18BFBDE8F0812A46EC
:10275000334601F0A5FFD4E90A2301F08DFC2A4697
:10276000334601F09DFFD4E9082301F085FC2A4699
:10277000334601F095FFD4E9062301F07DFC2A469B
:10278000334601F08DFFD4E9042301F075FC2A469D
:10279000334601F085FFD4E9022301F06DFC2A469F
:1027A000334601F07DFFD4E90023BDE8F04101F09C
:1027B00063BC0000002213461046014901F018BD19
:1027C0000000F03F012202F090BC002213461046A8
:1027D000114601F00DBD40F2013200204FF0E04102
:1027E00002F083BC024A0020110702F07EBC000008
:1027F00001FDFFFF2DE9F04786B08246BAF1000FD8
:1028000004D13948408806B0BDE8F087BAF1630FBB
:1028100002DB35480088F6E7AAF1010001F0D9FE95
:102820000022324BCDE9040101F0E2FC80468946EA
:102830002D49488801F0E4FECDE902012A490888C3
:1028400001F0DEFECDE90001DDE9022301F0D0FC5C
:10285000CDE9040100F030FF06460F4632463B4604
:102860004046494601F01CFFCDE9000100F012FC92
:10287000CDE904011C49488801F0C2FECDE90201FE
:10288000DDE9042301F00CFF04460D4616490888D3
:1028900001F0B6FE22462B46CDE9040101F0C4FE4C
:1028A00005D21149088801F0ABFE04460D460E49D9
:1028B000488801F0A5FE22462B46CDE9040101F02F
:1028C000EDFF05D20849488801F09AFE04460D46FE
:1028D0000022074B2046294601F0CEFBCDE904013A
:1028E00001F04AFE80B28EE7B651000800805840E1
:1028F0000000E03F2DE9FC5F8246BAF1000F19D1DC
:102900001A49488801F07CFE064601F083F8CDE9BB
:1029100000010022164BDDE9000101F0C1FE8046F6
:102920000022144B01F0A8FB064601F025FE80B200
:10293000BDE8FC9F5046FFF75DFF8346584601F017
:102940005FFE064601F066F804460D460022084B7D
:102950002046294601F0A4FE06460022054B01F060
:102960008BFB804601F008FE80B2E1E7B65100081B
:1029700000408F400000E03F10B504462A48007830
:1029800020B101280BD0022848D11DE0AA2C05D186
:1029900001202549087000202449088042E024488D
:1029A0000470022020490870002020490880204936
:1029B000097801F07F00152802DA1E49095C00E061
:1029C000FF211D4A11702DE0BB2C15D11849097843
:1029D00001F07F000B2809D014490988164A1278A3
:1029E000914203D00021104A11701BE000200E49D3
:1029F000087001F0EBF810E00C480088B0F5827F19
:102A000008DA0A4801880088401C084A10800B48F0
:102A1000445402E000200449087003E00020024909
:102A2000087000BF00BF10BD220000202000002061
:102A300023000020A0510008240000207002002084
:102A400070B504460D462078642806DD25B10121C5
:102A50001048007801F085FA70BD20780E49487062
:102A600021780D48817000200B4908710120087001
:102A70000020FDF701FD0120FDF7FEFC01200649C5
:102A8000C87025B100210348007801F06AFA00BF40
:102A9000E2E7000023000020B403002070B50646E2
:102AA0000C46304601F0C0F9054640F6B830854284
:102AB00003DB41F66410854206DD24B1012109489B
:102AC000007801F04EFA70BD284600F041F901206F
:102AD0000549087024B100210248007801F041FA4C
:102AE00000BFF0E723000020B403002070B50646C5
:102AF0000C46304601F098F90546B5F5B46F06DD91
:102B000024B101210748007801F02BFA70BD064876
:102B1000C58724B100210348007801F022FA00BFE4
:102B2000F4E7000023000020B403002070B5054640
:102B30000C4632201049487032210F488170002025
:102B40000D49087008714FF47A60C880084600216A
:102B5000018600200849C887FDF78EFC0120FDF79B
:102B60008BFC01200449C87024B10021034800787F
:102B700001F0F7F970BD0000B4030020230000202D
:102B800070B505460C460020054981F8400081F8E3
:102B9000410024B100210348007801F0E2F970BD42
:102BA000B40300202300002070B506460D461446ED
:102BB000134890F8400001280BD0114890F84000CD
:102BC000022806D024B102210E48007801F0C9F98C
:102BD00070BD02200A4981F840000846B0F8420062
:102BE000401CA1F842000846406C2844486424B1C7
:102BF00000210448007801F0B4F900BFE8E70000C4
:102C0000B40300202300002070B505460C460320C5
:102C1000044981F8400024B100210348007801F004
:102C2000A0F970BDB40300202300002070B5054654
:102C30000C460120074981F84000002081F841003E
:102C4000A1F84200486424B100210348007801F053
:102C500088F970BDB40300202300002070B504463D
:102C60000D462078012806DD25B10121184800789D
:102C700001F077F970BD207860B90020154908701F
:102C800008710120C8700020FDF7F6FB0120FDF758
:102C9000F3FB15E00F48407810B932200D49487019
:102CA0000C48807810B932210A4881700120094906
:102CB0000870C8700020FDF7DFFB0120FDF7DCFB8A
:102CC00025B100210248007801F04BF900BFD1E79F
:102CD00023000020B403002070B504460E4625787A
:102CE000012D06DD26B101211748007801F039F9E0
:102CF00070BDA078172802DCE0783B2806DD26B1FD
:102D000001211148007801F02CF9F1E761780F48B2
:102D10004155A178801C4155E178801C41552179AD
:102D2000801C41556179801C4155A01D01F07CF843
:102D300006490A3121F8150026B100210248007821
:102D400001F00FF900BFD3E723000020E4030020C7
:102D50002DE9F047044640F68C20844200DA044610
:102D600041F66410844200DD04462148C4800120FD
:102D70001F490871A4F68C2002F02CF880461D49EA
:102D800001F046FF05461C49284602F03BF8814603
:102D90004FF07C5101F0DAFE804601F0FBFFC6B235
:102DA00029464FF07E5002F0F9F88246124902F0AF
:102DB00029F881464FF07C5101F0C8FE804601F0B1
:102DC000E9FFC7B2012E00DA0126012F00DA012740
:102DD0000748467087700020FDF74EFB0120FDF785
:102DE0004BFB012002490870C870BDE8F087000065
:102DF000B403002000806D450000C84204480078FC
:102E000020B90348407808B9012070470020FCE74A
:102E10003E0000200B480068C0F300300A490870EB
:102E200000200A4908600A4908600A488068C0F31F
:102E30008010094908700020084908700849087086
:102E400070470000080C01402C00002030000020DA
:102E5000340000200010014038000020390000201C
:102E60003A0000202DE9F0418148C46A8148006899
:102E7000C0F300367F480068C0F340377E48806862
:102E8000C0F380157D480078864258D07C480068A1
:102E9000201A142853D37A480460BE4229D07448BB
:102EA000007838B9012072490870487001217048D3
:102EB000817012E06E484078632804DA6C484078EC
:102EC000801C6B4948706A484078632802DD6320A3
:102ED00067494870664841788170002064490871EC
:102EE0000120C8700020FDF7C7FA0120FDF7C4FAE1
:102EF00025E05F48007838B901205D4908704870C6
:102F000001215B4881700FE059484078022805DDB7
:102F100057484078801E5649487002E000205449C6
:102F20004870534841788170002051490871012050
:102F3000C8700020FDF7A0FA0120FDF79DFA4F4868
:102F40000670ADB94F480078012811D14E4800688D
:102F5000201A322803D24B480570BDE8F0810120C9
:102F60004A49087000204A490870474804607BE0DD
:102F7000002D4AD14548007878B34548007860BBB9
:102F800041480068201AB0F5FA6F6DD3012040491E
:102F900008703748007838B9012035490870322068
:102FA0004870322132488170012031490871084649
:102FB000C08840F6B831884204DC41F2F8102C4950
:102FC000C8801AE02A48C08841F66411884205DBAF
:102FD00040F6B8302649C8800FE016E02448C08883
:102FE00041F2F811884204DB41F664102049C880A0
:102FF00003E041F2F8101E49C8801D49C888FFF758
:10300000A7FE01201A49C8702EE0012D2CD11D48C1
:10301000007848BB1D48007808B31D480078F0B917
:103020001348007878B91248407810B93220104916
:1030300048700F48807810B932210D488170012006
:103040000B49087002E00020094908700120084976
:10305000C8700020FDF710FA0120FDF70DFA0020DE
:103060000A4908700A4908700648057000BF74E7ED
:10307000B4030020080C0140001001402C00002087
:1030800030000020380000203400002039000020EB
:103090003A0000202DE9F04D894BCE0F21F000477A
:1030A00084B005460C469F4230D38648874211D3F0
:1030B000C7F31300284305D004B02846BDE8F04DFF
:1030C000FFF780BB002E1ABF00200146284604B03F
:1030D000BDE8F08D7C4A284601F0E0FB07D20220D3
:1030E000FDF7D6F804B0BDE8F04DFFF774BB774AA2
:1030F000774B2846214601F097FA07D20220FDF7C8
:10310000C7F804B0BDE8F04DFFF76CBB7148B8429A
:1031100048D27148874215D27048784400EBC60007
:103120002146D0E90023284601F0FAFBCDE9000151
:103130006B48784400EBC600D0E900ABC6F1010053
:10314000861B26E0674A684B2846214601F0A8FA0C
:10315000664A7A4402EBC603D3E9002300F08CFFF1
:1031600001F0DAF9064601F034FA07468846604A6B
:10317000604B01F095FA2A46234601F0C5FBCDE9E4
:1031800000015D4A5D4B3846414601F089FA8246AE
:103190008B46DDE9000152465B4601F0C1FB054666
:1031A0000C4618E05648874214D2564A564B2846D9
:1031B000214600F061FF554E0022334601F06EFBC0
:1031C00008D204B0334628462146BDE8F04D00221F
:1031D00000F052BF00262A4623461046194601F049
:1031E0005FFA804602464A480F460B46052178445E
:1031F000FFF78AFA42463B4601F052FA2A46234636
:1032000001F082FB07468846E6B302460B460020E3
:103210004FF0804101F084FBCDE902013A4643467C
:103220002846214601F03CFADDE9022300F0E0FFE8
:1032300052465B4601F068FBDDE9002301F070FBBC
:103240000022324B01F060FB6FF47F729642A2BF06
:1032500001EB065104B0BDE8F08D4FF07A5202EB5D
:10326000065211442B4A01F040FF04460D46FFF779
:103270001BFA042808BFFFF7B5FA204604B0294618
:10328000BDE8F08DFFE700224FF0804301F048FBDE
:1032900082460E463A4643462846214601F000FA49
:1032A0005246334600F0A4FF2A46234601F038FB7D
:1032B00004B00022BDE8F04D144B01F025BB000026
:1032C000422E86400000F07FEF39FAFE51302DD5B6
:1032D000104987C0422ED63FB2A2F03FCA2000005C
:1032E000C2200000FE822B654715F73F82200000B8
:1032F0000000E0FE422EE63F763C7935EF39EA3DAC
:103300000000303E9C7500883CE4377E0000F03FB2
:103310001620000018FCFFFF4FF080414863704703
:1033200030B510481049114D0468AC4201D14468D1
:1033300000E0002422460D4D0C68AC4201D14C68DF
:1033400000E0002423469A4205D3064C084D2C6029
:10335000084C226004E0044C054D2C60054C2360B1
:1033600030BD000000F0030800F80308EFBEADDE3A
:10337000540000205000002039490868394A01688B
:10338000914200D07047017A374A5170427A3649EB
:103390008A70427B017B42EA0121334A1181C27B60
:1033A000817B42EA0121304A9181427C017C42EAE0
:1033B00001222D494A81C27C817C42EA01222A49AC
:1033C000CA814978012903DB27494978642902DD4C
:1033D0003221254A517024498978012903DB224989
:1033E0008978642902DD32221F498A701E490989C1
:1033F000012904DB1C490989B1F5FA6F03DD4FF49B
:10340000E161194A118118494989012904DB1649EA
:103410004989B1F5FA6F03DD4FF4E16212494A813F
:103420001149898940F6C412914204DB0E49898909
:10343000B1F5805F03DB40F60A710B4A91810A49BE
:10344000C98940F6C412914204DB0749C989B1F524
:10345000805F03DB40F60A720349CA8100BF91E72F
:1034600054000020EFBEADDEB403002010B51048BC
:1034700000681049884201D10F4800E00D48044619
:103480000E480068401C0D490860204600F026F8F0
:103490000748046000200A49C870087400210848E1
:1034A000417400200649887400210548C17410BD8C
:1034B0005400002000F0030800F80308500000202A
:1034C000B403002010B50448C07800B910BDFFF760
:1034D000CDFF00BFFAE70000B4030020F0B58BB0C9
:1034E00005462948069029480068079028484078F2
:1034F0008DF820002648817806A84172002181724B
:10350000C17223480089011206A801732048017A7C
:1035100006A841731E488089011206A881731C48C1
:10352000017B06A8C1731A484089011206A80174DC
:103530001748817A06A841741548C089011206A867
:1035400081741348817B06A8C174FDF709FE002031
:10355000029004950120059001A902A8FDF746FDFF
:1035600006AF002409E0A00857F820602919324668
:1035700000230220FDF79CFD241D142CF3D3FDF73E
:103580008DFD0BB0F0BD0000EFBEADDE50000020A1
:10359000B403002010B542F210742E48406840F485
:1035A00080702C4948604AF6AA202B4908606420A4
:1035B000FDF708FD4AF6AA20274908604821274858
:1035C000FCF737FE322025494870322123488170AC
:1035D0004FF4E1602149088101462048418140F6CD
:1035E0000A701E49888101461C48C181FDF720F9F7
:1035F000FFF796FEFFF7C0FEFFF70CFC1848007CB3
:10360000A106C86200BF201EA4F101018CB2FAD14C
:10361000FF20FFF781FE4FF08040006A40F001007C
:103620004FF0804108620020FCF78CFF0120FCF77E
:1036300089FF00BF80200B4908600520FDF7C2FC10
:1036400080200849091D086000BF3220FDF7BAFC40
:1036500010BD0000002004E000300040B403002052
:10366000B65100081008014010B500F08DFA04466C
:1036700021460020FCF752FE21461020FCF74EFEAA
:10368000084804804480084804804480002007499A
:1036900008704870064908704870064908704870FC
:1036A00010BD000040000020440000203E0000202B
:1036B000480000204A0000202DE9F04DC84A0024AF
:1036C00090B0914205DA21F00043934201D805D130
:1036D00020B110B0BDE8F04DFFF774B8B1F5801F10
:1036E0001BDA53EA000209D0002911DA0120FCF7A5
:1036F000CFFD10B0BDE8F04DFFF767B80220FCF732
:10370000C7FDFFF757F810B081F00041BDE8F08D1C
:103710006FF03504362201F0E8FC04EB2152C1F3CE
:103720001308B049A2F2FF33414401F4801282F041
:103730007F6103EB225281F04051009241EA08017F
:103740000022A94B01F0ECF8044608F10200A74E54
:10375000C0F313000D467E44032867D2D6E9002348
:10376000204600F09DFE1ED10098002802BFD6E939
:10377000000110B0BDE8F08D00F02BFF07460C46AD
:103780009B4A9C4B00F08CFF06460D469A4A9B4B89
:103790003846214600F084FF10B032462B46BDE883
:1037A000F04D00F069BC4FF05532954B204629464C
:1037B00000F076FF0022934B01F0A6F806460F4674
:1037C00022462B461046194600F06AFF32463B4619
:1037D00000F066FF064600980F46F0B100F0F9FED3
:1037E00080468A46824A834B00F05AFF32463B4667
:1037F00001F08AF822462B4601F092F805460C4665
:103800007D4A7E4B4046514600F04AFF10B02A46A2
:103810002346BDE8F04D01F083B80B4610B03246A8
:1038200020462946BDE8F04D01F07AB800224FF05D
:103830008043204600F020FC02460B4620462946E5
:1038400000F0D6FC06460F46009800F0C2FECDE917
:10385000040132463B461046394600F021FF0C90E9
:1038600069480C9A4044019009910B46104600F0BB
:1038700017FF8246024665488B46C8F151080B4641
:1038800008F5D72803217844FEF73EFF52465B46F1
:1038900000F006FF0A905E480D9152465B460421F7
:1038A0007844FEF731FF099B0C9A00F0F9FE84463C
:1038B00001980D9B40EA080860460A9A00F0DCFB7C
:1038C00083460891B8F1000F4EDD4FF0FF322046DD
:1038D000294601F00AFC22462B4600F0E1FE804614
:1038E00000988A4660B3DDE90401414A414B00F08B
:1038F000D7FE099100905A4640465146089B00F079
:10390000BBFB32463B4600F0CBFE099B009A00F021
:10391000B3FB4246534600F0F7FF22462B4600F029
:10392000FFFF04460D46DDE90401334A334B00F046
:10393000B7FE10B022462B46BDE8F04D00F0F0BFB8
:103940005A464046089B00F097FB32463B4600F043
:10395000A7FE4246534600F0D7FF10B022462B4642
:10396000BDE8F04D00F0D0BF009840B3DDE90401A0
:103970001F4A204B00F094FE80468A465A46204655
:103980002946089B00F0CCFF32463B4600F088FEFB
:103990004246534600F0C4FF22462B4600F0C0FFCB
:1039A00004460D46DDE90401134A144B00F078FE8D
:1039B00010B022462B46BDE8F04D00F0B1BF0B46DB
:1039C0005A462046294600F0ABFF32463B4600F0FF
:1039D00067FE10B022462B46BDE8F04D00F094BFC4
:1039E0000000F07F645F09000000F03F0E1B000044
:1039F000763C7935EF39EA3D0000E0FE422EE63FA5
:103A00005555D53F0000E03F86EBF9FFA6190000B1
:103A1000A41900002DE9F04104460D46064A074B63
:103A20002046294600F03CFE0646054A054B00F0BC
:103A30006BFFBDE8F081000064E2DA79B0FF393F46
:103A4000FD6A0E10CCD1F43F1CB5FDF789FDFEF7E1
:103A50005EFDFEF709FCFEF7EDFBFEF7C5FBFEF78A
:103A60000FFDFEF7F9FCFFF795FD00200090019097
:103A7000802000903C4801906846FDF737FEFDF736
:103A80008FFE3A48006840F480303849086069E0A9
:103A90004AF6AA2036490860FDF720FD3549C8627C
:103AA0000846C06A34490968401A3449098B88427B
:103AB00009D33048C06A30490860FCF76BFCFFF757
:103AC000D1F900F0E9F92B48C06A2D490968401A7C
:103AD0002A49498B88422AD32648C06A2849086067
:103AE0002448B0F914402548407CA04203DD002062
:103AF000FFF712FC1AE02148807CA04203DD402041
:103B0000FFF70AFC12E01D48C07CA04203DD8020C4
:103B1000FFF702FC0AE01948007DA04203DDC02047
:103B2000FFF7FAFB02E0FE20FFF7F6FB00BF1148AB
:103B3000C06A14490968401A1049898B884210D319
:103B40000C48C06A0F49086000F01EFA0948C078A6
:103B500038B10848007820B9FFF750F908B1FFF7ED
:103B6000B1FC30BF94E700000300010000040140F5
:103B700000300040B403002000000020B6510008CF
:103B800004000020080000202DE9F0470C49888837
:103B900000F036FD0446FFF73DFF804689460022CF
:103BA000084B4046494600F07BFD06460022064B86
:103BB00000F062FA044600F0DFFC80B2BDE8F08756
:103BC000B651000800408F400000E03F2DE9F04171
:103BD0004148007800F07F043F480078C5093F4F16
:103BE0003F480678102C20DB142C1EDCA4F11000BA
:103BF000052816D2DFE800F00306090F120000F0D6
:103C0000BFF80FE000F07EF80CE0012E02DB384632
:103C100000F0D4F806E000F067F803E000F090F858
:103C200000E000BF00BFBDE8F0810B2C0CD02D4898
:103C300010F80480464506D025B1012126480078B9
:103C400000F08FF9EFE700BF0E2C3BD2DFE804F065
:103C50003A070C11161B203A3A3A252A30352946E4
:103C60003846FEF7FBFF34E029463846FEF7E8FE0B
:103C70002FE029463846FEF711FF2AE0294638464C
:103C8000FFF72AF825E029463846FEF74FFF20E0E7
:103C900029463846FEF72AFF1BE029463846FEF73C
:103CA000C5FF16E02A4631463846FEF77DFF10E094
:103CB00029463846FEF7A8FF0BE029463846FEF7AE
:103CC0005FFF06E025B103210348007800F049F9C1
:103CD00000BF00BF00BFA6E7230000207002002045
:103CE00020000020A051000808B50548C18F684693
:103CF00000F0B6F902226946232000F00DF908BD54
:103D0000B40300201CB50C48407D8DF800000A4823
:103D1000807D8DF8010000208DF802000748808A20
:103D200081B20DF1030000F09BF9052269462120C4
:103D300000F0F2F81CBD0000B6510008B4030020EA
:103D40001CB50E4890F840008DF800000B4890F824
:103D500041008DF801000948B0F842100DF1020051
:103D600000F07EF90548416C01A800F07DF90822B9
:103D70006946242000F0D0F81CBD0000B4030020E8
:103D800008B50D4800788DF800000B4840788DF894
:103D900001000948C08810B10748C08801E04FF40D
:103DA0007A6001460DF1020000F05AF904226946DA
:103DB000202000F0B1F808BDB40300207CB5054612
:103DC0002C78012C04DD0121922000F0CAF87CBD82
:103DD0008DF800401348005D8DF801001148801CEB
:103DE000005D8DF802000F48001D005D8DF8030096
:103DF0000C48801D005D8DF804000A480830005D05
:103E00008DF8050007480A3030F814100DF106004F
:103E100000F026F908226946222000F07DF800BF54
:103E2000D5E70000E4030020014648780A7840EA1C
:103E30000220704770B50346102900DD70BD124C9A
:103E40002478601CC41700EB9474A410A0EB8404C5
:103E5000E2B20E480078824200D1EFE7002008E08D
:103E60001C5C0B4D084E367805EB06152C54441C93
:103E7000E0B28842F4DB0748034C2478015502483D
:103E8000027000BFDAE70000290000202A000020AD
:103E900074030020250000202CE01A481A4A1278EA
:103EA000815C002011E000BF184A126802F0800215
:103EB000002AF9D0164A144B1B7802EB0312125C4D
:103EC000124B1B1D1A60421CD0B28842EBDB00BFB4
:103ED0000E48006800F040000028F9D00A4A127825
:103EE000501CC21700EB92729210A0EB8202064B9C
:103EF0001A7000BF04480078064909788842CCD17E
:103F000070470000250000202A00002000380140F2
:103F100074030020290000202DE9FF4105460E46CC
:103F20001746AA208DF800008DF8015002240020C9
:103F300007E0335C2146621CD4B20DF80130411C0D
:103F4000C8B2B84201DA0F2CF3DBBB222046611C59
:103F5000CCB20DF8002021466846FFF76BFFBDE8A4
:103F6000FF8138B505460C46AA208DF800008DF873
:103F700001508DF80240BB208DF8030004216846F3
:103F8000FFF758FF38BD000070B5FCF71FFB044673
:103F90003148848209200AE0411E2F4A163232F845
:103FA00011202D49163121F81020411EC8B20028D9
:103FB000F2DC2948C48290F82A00E8B101250020EB
:103FC0000CE02549163131F91010244AB2F90E20BF
:103FD000914201DB002503E0411CC8B20A28F0DB56
:103FE00000BF45B100201C4981F82A00FCF744FAC3
:103FF0000120FCF741FA2DE01748B0F916001749E7
:10400000B1F90C10884225DD1348B0F918001349A6
:10401000B1F90C1088421DDD0F48B0F91A000F49A4
:10402000B1F90C10884215DD0B48B0F91C000B49A2
:10403000B1F90C1088420DDD0748B0F91E000749A0
:10404000B1F90C10884205DD0120034981F82A00EE
:10405000FFF70AFB70BD0000B4030020B651000852
:104060000A120270417070470A0E02700A0C427008
:104070000A0A8270C170704710B591EA030F48BFF9
:1040800083F0004300F15484841A71EB030C05D2D1
:10409000121943EB0C03001B61EB0C01DFF824E168
:1040A0004FEA1154A4EB135C1EEA430F18BF9EEABB
:1040B000445F73D023EA0E03DCF1200E21EA0451A1
:1040C00043F4801332D322FA0CFE10EB0E0023FAD5
:1040D0000CFE41EB0E01CCF1200E03FA0EFE10EBAC
:1040E0000E0051F10001B1F5801FCCF1200E32D24B
:1040F00001EB045112FA0EF2BDE8104058BF7047B0
:10410000401C38BF5FEA420218BF7047002814BF46
:1041100020F0010041F100014FEA410313F5001FB7
:1041200038BF7047A1F1C04100F0B2BB012A43EB98
:104130000302ACF1200CDCF11F0E32BF4FF0000E79
:1041400023FA0CF310EB030041EB0451B4EB115FC5
:10415000D0D0A1EB045101F5801149085FEA30008D
:1041600001EB04510ED350F1000038BF12FA0EFEDD
:1041700008D1BDE81040C9E7401C38BF5FEA4202E1
:10418000CAD1C3E7BDE810404FEA410313F5001F51
:1041900038BF7047A1F1C04100F07ABB9EEA445F8E
:1041A00008D011EA5E0FBDE8104004BF01F00041E5
:1041B00000207047BDE8104070B500F01BFB00BF49
:1041C00064FBBE3E0000E0FF02494FF0000000F03B
:1041D0005ABF00BF0000F87F491058BFC1F14041ED
:1041E0005B1058BFC3F140438B42EFF30080704730
:1041F0002DE9C04130B4DFF8A0C23CEA111418BF69
:104200003CEA131400F0EC8081EA03051CEA111467
:1042100044EAD57418BF1CEA131500F0C780A4EB5C
:1042200005044FF0004545EAC12145EAC32341EAB0
:10423000505143EA525304F17F74994204F500341B
:104240004FEAC0204FEAC22208BF904200F09C8093
:104250004FEA13650FF24016765D4FEA134506FBF1
:1042600005F7C7F1807706FB07F74FEAD737A7FBBB
:1042700003687642C8F58038A7FB06CE38BFA8F1A0
:10428000010807FB08E64FF0000EA6FB028CE6FBD8
:1042900003CEDCF1000CCEF1004E38BFAEF1010EC2
:1042A000A6FB0C584FF000074FF00005E6FB0E8709
:1042B000A1FB08C6A0FB07CE16EB0E0645F10005D4
:1042C000E1FB076515F1E04E7EBFA4F580345FEA9F
:1042D00046066D4116F1800745F100054FEA1727A4
:1042E0004FEA066647EA0567A6F1DE46B6F1805F4B
:1042F0004FEA15251FD9384624F0010C05EBC4718F
:10430000BCF1FE6F01EB0C1102D8F0BCBDE80081DE
:1043100024425CBF01F5801E9EEAC47F02D4F0BC3B
:10432000BDE80081244238D4F0BCA1F1C041BDE811
:10433000004100F0ADBA4FEAD22242EA43524FEABE
:10434000D323A7FB02864FEAD02040EA415007FB67
:1043500003661EEA0E0F4FEAD12105FB026658BF25
:10436000A6EB0056B6EB00564FEA520E4EEAC37E5D
:1043700018EB0E0E56EB530EBDD518EB02085E413E
:104380007F1C55F10005B6E74FF480154FF000078C
:104390004FF000064FF00008ADE7F0BC4FF0000012
:1043A00001F1C04101F00041BDE8008111EA0C1F9C
:1043B0000CEA131500D00CE013EA0C1F00F0258066
:1043C0004FF00000F0BC81EA030101F00041BDE8BC
:1043D0000081F0BCBDE8004181EA030100F058BA59
:1043E000F0BCBDE8004170B500F004FA097EFC3E67
:1043F00000F007B881EA03014FF0000001F000412E
:10440000704781EA030100F043BAF0BCBDE8004107
:104410004FF0000021497047FFFDFBF9F7F5F4F27A
:10442000F0EEEDEBE9E8E6E4E3E1E0DEDDDBDAD84F
:10443000D7D5D4D3D1D0CFCDCCCBCAC8C7C6C5C4AD
:10444000C2C1C0BFBEBDBCBBBAB9B8B7B6B5B4B3C4
:10445000B2B1B0AFAEADACABAAA9A8A8A7A6A5A4AF
:10446000A3A3A2A1A09F9F9E9D9C9C9B9A99999873
:104470009797969595949393929191908F8F8E8E16
:104480008D8C8C8B8B8A89898888878786858584A3
:1044900084838382828181800000FF070000F87F8F
:1044A00051EA030C17D41CF5801F58BFBCF5801FC0
:1044B00000F10680994218BF704708BF90427047CC
:1044C00007D711F5801F58BF13F5801F19D49942E3
:1044D0007047894270471CF5801F08D5BCF5801FC6
:1044E000F7D58B4218BF704708BF824270474FF420
:1044F000001C1CEB410F38BF1CEB430F01D28B4259
:10450000704770B500F076F9922449004FF00051E1
:104510004FF08053FFF760BE4FEA41034FEA535319
:10452000A3F58063D3F11E03C8BFD3F1210C0CDDCA
:104530004FF0004242EAC12242EA505232FA03FCF2
:104540008CEAE17CACEBE1707047102BC4BF00201B
:10455000704703F5787CBCF1FF3F04D06FF0004258
:1045600082EA2100704770B500F044F94992248036
:1045700000207047F2E700004FEA1153A3F5806373
:10458000D3F11E03A8BFD3F1200C08DB4FF000428B
:1045900042EAC12252EA505232FA03F0704709420D
:1045A0000BD4102BC4BF0020704703F5787CBCF1FE
:1045B000FF3F05D04FF0FF3070474FF000007047CD
:1045C00070B500F017F900BF4992248000207047B1
:1045D000F0E710F0004248BF4042B0FA80F310FA12
:1045E00003F10AD0C3F11D0303F580634FEA415084
:1045F00002EB035202EBD12170474FF000007047ED
:10460000B0FA80F310FA03F10AD0C3F11D0303F5E9
:1046100080634FEA41504FEA035202EBD1217047C9
:104620004FF000007047000051EA030C17D41CF54E
:10463000801F58BFBCF5801F00F10680994218BF4B
:10464000704708BF9042704707D711F5801F58BFC9
:1046500013F5801F19D499427047894270471CF5A1
:10466000801F08D5BCF5801FF7D58B4218BF704757
:1046700008BF824270474FF4001C1CEB410F38BF4B
:104680001CEB430F01D28B42704770B500F0B2F8BB
:10469000922449004FF000514FF08053FFF79CBD2A
:1046A000DFF848C170B51CEA111E1EBF1CEA1315C5
:1046B0009EEA0C0F95EA0C0F00F06F8081EA03046C
:1046C00023EA4C134EEAD47E21EA4C1141F48011C6
:1046D00043F48013AE44A1FB024CA0FB0365AEF192
:1046E0007F7E361955EB0C05A1FB034C4CF1000302
:1046F000A0FB021C16EB0C06654153F100030942B6
:1047000018BF46F0010613F4007F0BD14FEA0331C6
:104710004FEA0530340341EA155140EA16506FF074
:1047200003020AE04FEAC3214FEAC520F40241EA3E
:10473000555140EA56506FF0020202EB2E4201EB57
:10474000025585EACE710AD05FEA440C18BF24F006
:10475000004450F1000041F1000120EAD47040F221
:10476000FE7C624500D270BDA84214BF4FF0804469
:104770004FF04044002E08BF0024BEF1806FA8BF58
:10478000A1F1C041BDE8704080F282804FF000008E
:1047900001F1C04101F0004170479EEA0C0F0CEAA4
:1047A000131518BF95EA0C0F06D04FF0000081EAF0
:1047B000030E0EF0004170BD00F01CF88900013EB0
:1047C00000F007B800F009B84FEA430C5FEA5C5C00
:1047D00008D081EA030100F05BB84FEA410C5FEAC0
:1047E0005C5CF6D14FF00000014970470000FF0704
:1047F0000000F87F0EF1020E2EF0030E5EF8046B3F
:10480000364205D4012A43EB030515F5001F12D8E3
:10481000012841EB010C1CF5001F0CD80ED14FEA0A
:10482000D17C15F5001F0CEB4C0C0CF1020C08BFF1
:104830004CEBD37C04E04FF0080C01E04FEAD37C52
:104840000CEB4C0526FA05F606F00706B6F1040C4B
:1048500006D20EEB860CBDE870404CF0010C6047B0
:10486000DFE80CF0090B02024FF000414FF00000AE
:10487000A1F5002170BD19461046012851EB010435
:1048800018BFD4F5001484BF002001F0004170BDB2
:104890000808A0F500114FEA3101704753EA010CF6
:1048A00017D41CF5801F58BFBCF5801F00F106808F
:1048B0008B4218BF704708BF8242704707D713F575
:1048C000801F58BF11F5801F19D48B4270479B423F
:1048D00070471CF5801F08D5BCF5801FF7D599429D
:1048E00018BF704708BF904270474FF4001C1CEB84
:1048F000430F38BF1CEB410F01D2994270470FB4F0
:104900000CBC03BCFFF7C1BE91EA030F10B581F0E8
:1049100000413FF5B9AB83F0004300F009B8000057
:1049200010B591EA030F48BF83F000433FF5ACABED
:10493000841A71EB030C07D212198CF0004C43EB74
:104940000C03001B61EB0C01DFF8A4E14FEA1154EA
:10495000A4EB135C1EEA430F18BF9EEA445F00F00D
:10496000B08023EA6E03524221EA0451C3EB6E0386
:1049700038BF5B1EDCF1200E25D322FA0CFE10EBB3
:104980000E0043FA0CFE41EB0E01CCF1200E03FAAF
:104990000EFE10EB0E0051F10001CCF1200E29D4D7
:1049A00012FA0EF201EB0451BDE8104058BF7047F7
:1049B000401C1CBFB2F1004F704700280CBF491CBF
:1049C00020F00100704712EB020E43EB030218BF08
:1049D0004FF0010E4EEA4202ACF1200CDCF11E0E4B
:1049E00054D943FA0CFE10EB0E0051F1FF31CCF11B
:1049F0001E0ED5D50EF1010E12FA0EFE404141EB0E
:104A0000010101EB445C5FEA5C5C10D910EBDE70E5
:104A100001EB045138BFBEF1004FBDE8104018BF94
:104A2000704700280CBF491C20F00100704730D2AD
:104A30004FEAD42C11F5001124F400641BD0B1FA14
:104A400081F20B3AA41AA41ED2F12003914030FA4D
:104A500003F31943904001EBCC71002C01EB04519E
:104A6000BDE81040A8BF704701F1C0414FF0000001
:104A700001F000417047B0FA80F310FA03F100D161
:104A800010BDE41A173C4805C90AE4E701EB0451DC
:104A900010BD491001EB0451BDE810404FEA300051
:104AA00002E04FF0000170474A0008BF0042F8D012
:104AB000B2F5001F28BF704701F000414FF0000021
:104AC00070479EEA445F07D011EA5E0FBDE81040D0
:104AD00004BF002100207047BDE8104070B5FFF70B
:104AE00089FE00BF40DFF63E83F00041104670476C
:104AF0000000E0FF43004FEAD30C4FEA3C0C434078
:104B00001FBF40070CF1605113F0FE4F70471CF0BF
:104B1000006F03D100200CF0004170470CF00043FF
:104B200043EA507010B540EACC0000F0ECF900BF49
:104B3000000000924FEA0001FFF7AABE4FF00041CB
:104B40004FF00000A1F500217047000090EA010F2E
:104B500048BF81F0004100F12882421A3CBF801A10
:104B600089184FEAD0524FF07F4C1CEA410FA2EB5C
:104B7000D15318BF9CEA026F00F03B804FF0004C0D
:104B80004CEA00204CEA012121FA03FC10EB0C0C4A
:104B90001ED202F1FF325FEA1C2040EBC25038BF48
:104BA00070471CF07F0F4FEA400C18BFBCF17F4FDD
:104BB00038BF7047C3F12003994008BF20F00100BF
:104BC000BCF17F4F38BF7047A0F1C04000F0E1B9A1
:104BD0004FEA3C00000A40EBC25028BF1CF0FF0F18
:104BE0004FEA400CE6D018BFBCF17F4F38BF70478A
:104BF000EAE79CEA026F05D010EA5C0F08BF00F0FC
:104C00000040704710B500F07EF900BF64FBBE3E67
:104C10004FF47F0C1CEAD0121EBF1CEAD11392EA9B
:104C20000C0F93EA0C0F00F0858090EA010F48BF4B
:104C300042F4807240F4000C41F400002CF07F41FB
:104C400020F07F4000B58142A2EB03020FF2081C66
:104C5000ACEB504EC0F100009EF800E04FEA4E0E63
:104C600000FB0EFC38BF49004FEA2C1C02F5FA028B
:104C70000CFB0EF34FEACE1E4FEA112C4FEAC12176
:104C80000EEB635E42EB22420EFB0CFC4FEA1C5320
:104C900000FB03114FEA112C4FEA01310EFB0CFC13
:104CA0004FEADC4C00FB0C11C14228BF09184CEB49
:104CB00003335DF804EB10EB410143EBC250B2F556
:104CC0007C0F38BF704729D512F0F00F1CBF00F1E0
:104CD000C04000F000407047008182838485868751
:104CE00088898B8C8D8E8F919293959697999A9CAB
:104CF0009D9FA0A2A3A5A7A8AAACAEB0B2B3B5B71A
:104D0000B9BCBEC0C2C5C7C9CCCED1D4D7D9DCDFEF
:104D1000E2E6E9ECF0F3F7FAFE0000004FEA400C9F
:104D20000CF1807CBCF17E4F28BF7047B0F1C040D1
:104D300000F02FB990EA010F0CEAD11348BF42F4FA
:104D40008072624538BF634507D213F47F0F16D0D7
:104D500080EA010000F00040704710B500F0D3F881
:104D6000097EFC3E00F005B880EA010000F000403A
:104D7000704780EA010000F0004000F00AB912F428
:104D80007F0F04BF0248704780EA010000F001B9BC
:104D90000000C07FC10DD1F19E0206DB4FEA002367
:104DA00043F0004323FA02F07047004207D54FEA70
:104DB0004001B1F1FE4F02D24FF00000704710B534
:104DC00000F0A1F849922480002070476FEA20008B
:104DD0007047000010F0004148BF4042B0FA80F335
:104DE00010FA03F2C3F19D030BD051EAC35101EB5A
:104DF0001220530638BF704700F1010008BF20F0B1
:104E0000010070474FF47F0C1CEAD0121EBF1CEA51
:104E1000D11392EA0C0F93EA0C0F00F0478090EA4E
:104E2000010F48BF42F480724FF0004C4CEA002062
:104E30004CEA012102EB0302A0FB0113A2F50002E0
:104E4000002918BF43F001035B0028BF4FEA33037A
:104E500042EB22425FEA132C4CEBC2502EBFBCEB5C
:104E6000436FB2F57C0F70474FEA036CBCF1004F03
:104E700008BF20F00100B2F57C0F38BF70470BD59A
:104E800082F0FF0212F5803FC8BF704700F1C040BA
:104E9000D8BF00F00040704700F5000C5FEA4C0CF2
:104EA00048BF7047B0F1C04000F073B890EA010FFE
:104EB0000CEAD11348BF42F48072624538BF6345A3
:104EC00004D280EA010000F00040704710B500F005
:104ED0001AF800BF8900013E00F007B800F009B8D9
:104EE0005FEA410C5FEA1C6C08D080EA010000F028
:104EF00050B85FEA400C5FEA1C6CF6D14FF00040FE
:104F0000A0F5800070470EF1020E2EF0030E5EF841
:104F1000044B244204D44FEA4102B2F17F4F11D82E
:104F20004FEA4003B3F17F4F0CD80ED14FEAD07C4B
:104F3000B2F17F4F0CEB4C0C0CF1020C08BF4CEBA8
:104F4000D17C04E04FF0080C01E04FEAD17C0CEB7F
:104F50004C0324FA03F404F00704B4F1040C06D261
:104F60000EEB840CBDE810404CF0010C6047DFE80C
:104F70000CF0070802024FF00040A0F5800010BDC1
:104F80000846420018BFD2F1807288BF00F000408E
:104F900010BDFF2141EAD050C005704790EA010FD3
:104FA00048BF81F000413FF5D8AD421A04D882F0E5
:104FB0000042A0EB020011444FEAD0524FF07F4C68
:104FC0001CEA410FA2EBD15318BF9CEA026F4AD0F2
:104FD0004FF0004C4CEA00204CEA012121FA03FC7E
:104FE000B0EB0C0C0FD412F0FE0F36D05FEA4C0081
:104FF0001DD5001240EBC25038BF70471CF03F0F68
:1050000018BF70470BE0A2F101025FEA1C2040EBE1
:10501000C25038BF70471CF07F0F18BF7047C3F1F4
:105020002003994014BF401E20F001007047800803
:105030004FEA122308BF7047B0FA80FCA2EB0C02C3
:10504000CCF1280C60FA0CF093EA122F04BF00EBAD
:10505000C25070474FEAC3707047130A5FEADC1012
:1050600008BF7047F6E79CEA026F04D010EA5C0FB5
:1050700008BF0020704710B5FFF745FF40DFF63E40
:1050800081F0004070470CF00F03092B08BF082087
:1050900000F059800A2B0BD0082B18BF704708BFAF
:1050A0001CF0400F0AD04FF000004FF00001704795
:1050B0001CF0400F18BF4FF0004070471CF0100F5D
:1050C00008D020F0704300F07F4242EAD3014FEA5B
:1050D0004370704700F0604021F07F4242EA0002D6
:1050E00001F07F4040EA727070474FF0FF0C4CF4C3
:1050F000E06C1CEA11531CBF9CEA030C9445C2BF30
:10510000DA4201EB02517047002B0DD0BCF1000FC9
:105110000FD0002A01F00041A4BF41F0E04141F06E
:105120007F614FF00000704701F000414FF0000038
:10513000704750EA01334FF09B0C18BF4CF0806C65
:105140007FF442A870471CF4801F11D01CF4E02F9C
:1051500003D06FEACC31490070474FF04050EFF375
:10516000008222F0704242EA000282F30088704717
:105170004FF00000704702030405060708090A0BF8
:105180000C0D0E0F101001020000000000000000C6
:1051900001020304060708090000000001020304DD
:1051A000000101020800020000000BFF02000000E5
:1051B00000000100000084033C000000E40CFF0F2D
:1051C000140084032003FE6496C8FA020000050060
:1051D0006400E80300000000000000000000E03F61
:1051E000000000000000E0BF0000E0FE422EE63FAD
:1051F0000000E0FE422EE6BF763C7935EF39EA3D0D
:10520000763C7935EF39EABD3E5555555555C53F84
:1052100093BDBE166CC166BF2CDE25AF6A56113F2A
:10522000F16BD2C541BDBBBED0A4BE726937663E2C
:1052300004FA97999999D93FAF788E1DC571CC3FE3
:105240009FC678D0099AC33F935555555555E53FAC
:10525000599322942449D23FDE03CB966446C73F3C
:1052600044523EDF12F1C23F000000000000000087
:105270009052000800000020580000006C01000857
:10528000E852000858000020080A000088010008C1
:10529000000000000000000000000000000000000E
:1052A0000000000010000000010000000024F400D5
:1052B00000000000000000000000000000000000EE
:1052C00000000000000000000000000000000000DE
:1052D00000000000000000000000000000000000CE
:0852E0000000000000000000C6
:0400000508000131BD
:00000001FF
